{
  "contracts/NamedCounter.sol": {
    "NamedCounter": {
      "abi": [
        {
          "anonymous": false,
          "inputs": [
            {
              "indexed": false,
              "internalType": "string",
              "name": "method",
              "type": "string"
            },
            {
              "indexed": false,
              "internalType": "uint256",
              "name": "oldNumber",
              "type": "uint256"
            },
            {
              "indexed": false,
              "internalType": "uint256",
              "name": "newNumber",
              "type": "uint256"
            },
            {
              "indexed": false,
              "internalType": "address",
              "name": "caller",
              "type": "address"
            }
          ],
          "name": "CounterChanged",
          "type": "event"
        },
        {
          "inputs": [],
          "name": "count",
          "outputs": [
            {
              "internalType": "uint256",
              "name": "",
              "type": "uint256"
            }
          ],
          "stateMutability": "view",
          "type": "function"
        },
        {
          "inputs": [],
          "name": "dec",
          "outputs": [],
          "stateMutability": "nonpayable",
          "type": "function"
        },
        {
          "inputs": [],
          "name": "get",
          "outputs": [
            {
              "internalType": "uint256",
              "name": "",
              "type": "uint256"
            }
          ],
          "stateMutability": "view",
          "type": "function"
        },
        {
          "inputs": [],
          "name": "inc",
          "outputs": [],
          "stateMutability": "nonpayable",
          "type": "function"
        },
        {
          "inputs": [],
          "name": "name",
          "outputs": [
            {
              "internalType": "string",
              "name": "",
              "type": "string"
            }
          ],
          "stateMutability": "view",
          "type": "function"
        },
        {
          "inputs": [
            {
              "internalType": "string",
              "name": "_name",
              "type": "string"
            }
          ],
          "name": "setName",
          "outputs": [],
          "stateMutability": "nonpayable",
          "type": "function"
        }
      ],
      "evm": {
        "bytecode": {
          "linkReferences": {},
          "object": "6080806040523461001657610771908161001c8239f35b600080fdfe608060409080825260048036101561001657600080fd5b600091823560e01c90816306661abd146106405750806306fdde03146104d4578063371303c0146104265780636d4ce63c146103eb578063b3bcfa82146102f25763c47f00271461006657600080fd5b346102ee57602090817ffffffffffffffffffffffffffffffffffffffffffffffffffffffffffffffffc3601126102ea57803567ffffffffffffffff918282116102e657366023830112156102e65781810135958387116102ba5751957fffffffffffffffffffffffffffffffffffffffffffffffffffffffffffffffe0926100f68685601f85011601896106cb565b81885236602483830101116102b6578187926024889301838b013788010152855192831161028a575060019261012c8454610678565b601f8111610226575b508091601f841160011461018e575050839482939492610183575b50507fffffffffffffffffffffffffffffffffffffffffffffffffffffffffffffffff82841b9260031b1c191617905580f35b015190503880610150565b8486528316957fb10e2d527612073b26eecdfd717e6a320cf44b4afac2b0732d9fcbe2b7fa0cf6929186905b88821061020f57505083859697106101d8575b505050811b01905580f35b01517fffffffffffffffffffffffffffffffffffffffffffffffffffffffffffffffff60f88460031b161c191690553880806101cd565b8087859682949686015181550195019301906101ba565b8486527fb10e2d527612073b26eecdfd717e6a320cf44b4afac2b0732d9fcbe2b7fa0cf6601f850160051c810191838610610280575b601f0160051c019085905b828110610275575050610135565b878155018590610267565b909150819061025c565b8460416024927f4e487b7100000000000000000000000000000000000000000000000000000000835252fd5b8680fd5b6024866041847f4e487b7100000000000000000000000000000000000000000000000000000000835252fd5b8480fd5b8280fd5b5080fd5b5082346102ea57827ffffffffffffffffffffffffffffffffffffffffffffffffffffffffffffffffc3601126102ea578254907fffffffffffffffffffffffffffffffffffffffffffffffffffffffffffffffff8201928284116103bf57507fc5802a3758d71d4ea2b77079fad7b332621c089586b2fd70ec9b7e75761a8def91838260c093519260808452600960808501527f44656372656d656e74000000000000000000000000000000000000000000000060a08501526020840152820152336060820152a1815580f35b8460116024927f4e487b7100000000000000000000000000000000000000000000000000000000835252fd5b8284346102ee57817ffffffffffffffffffffffffffffffffffffffffffffffffffffffffffffffffc3601126102ee57602091549051908152f35b5082346102ea57827ffffffffffffffffffffffffffffffffffffffffffffffffffffffffffffffffc3601126102ea5782549060018201928383116103bf57507fc5802a3758d71d4ea2b77079fad7b332621c089586b2fd70ec9b7e75761a8def91838260c093519260808452600960808501527f496e6372656d656e74000000000000000000000000000000000000000000000060a08501526020840152820152336060820152a1815580f35b8284346102ee57817ffffffffffffffffffffffffffffffffffffffffffffffffffffffffffffffffc3601126102ee578051828160019182549261051784610678565b8084529381811690811561060057506001146105a4575b5061053e925094929403846106cb565b815192839160208084528251928382860152825b84811061058e57505050828201840152601f017fffffffffffffffffffffffffffffffffffffffffffffffffffffffffffffffe0168101030190f35b8181018301518882018801528795508201610552565b8087528691507fb10e2d527612073b26eecdfd717e6a320cf44b4afac2b0732d9fcbe2b7fa0cf65b8483106105e5575061053e93505081016020018661052e565b819350908160209254838589010152019101909184926105cc565b6020935061053e9592507fffffffffffffffffffffffffffffffffffffffffffffffffffffffffffffff0091501682840152151560051b8201018661052e565b8390346102ee57817ffffffffffffffffffffffffffffffffffffffffffffffffffffffffffffffffc3601126102ee57602091548152f35b90600182811c921680156106c1575b602083101461069257565b7f4e487b7100000000000000000000000000000000000000000000000000000000600052602260045260246000fd5b91607f1691610687565b90601f7fffffffffffffffffffffffffffffffffffffffffffffffffffffffffffffffe0910116810190811067ffffffffffffffff82111761070c57604052565b7f4e487b7100000000000000000000000000000000000000000000000000000000600052604160045260246000fdfea2646970667358221220f14a999857312b226ee59d9348795f75c7a160c58959fbb1f8e9dc830cc74e5564736f6c63430008120033",
          "opcodes": "PUSH1 0x80 DUP1 PUSH1 0x40 MSTORE CALLVALUE PUSH2 0x16 JUMPI PUSH2 0x771 SWAP1 DUP2 PUSH2 0x1C DUP3 CODECOPY RETURN JUMPDEST PUSH1 0x0 DUP1 REVERT INVALID PUSH1 0x80 PUSH1 0x40 SWAP1 DUP1 DUP3 MSTORE PUSH1 0x4 DUP1 CALLDATASIZE LT ISZERO PUSH2 0x16 JUMPI PUSH1 0x0 DUP1 REVERT JUMPDEST PUSH1 0x0 SWAP2 DUP3 CALLDATALOAD PUSH1 0xE0 SHR SWAP1 DUP2 PUSH4 0x6661ABD EQ PUSH2 0x640 JUMPI POP DUP1 PUSH4 0x6FDDE03 EQ PUSH2 0x4D4 JUMPI DUP1 PUSH4 0x371303C0 EQ PUSH2 0x426 JUMPI DUP1 PUSH4 0x6D4CE63C EQ PUSH2 0x3EB JUMPI DUP1 PUSH4 0xB3BCFA82 EQ PUSH2 0x2F2 JUMPI PUSH4 0xC47F0027 EQ PUSH2 0x66 JUMPI PUSH1 0x0 DUP1 REVERT JUMPDEST CALLVALUE PUSH2 0x2EE JUMPI PUSH1 0x20 SWAP1 DUP2 PUSH32 0xFFFFFFFFFFFFFFFFFFFFFFFFFFFFFFFFFFFFFFFFFFFFFFFFFFFFFFFFFFFFFFFC CALLDATASIZE ADD SLT PUSH2 0x2EA JUMPI DUP1 CALLDATALOAD PUSH8 0xFFFFFFFFFFFFFFFF SWAP2 DUP3 DUP3 GT PUSH2 0x2E6 JUMPI CALLDATASIZE PUSH1 0x23 DUP4 ADD SLT ISZERO PUSH2 0x2E6 JUMPI DUP2 DUP2 ADD CALLDATALOAD SWAP6 DUP4 DUP8 GT PUSH2 0x2BA JUMPI MLOAD SWAP6 PUSH32 0xFFFFFFFFFFFFFFFFFFFFFFFFFFFFFFFFFFFFFFFFFFFFFFFFFFFFFFFFFFFFFFE0 SWAP3 PUSH2 0xF6 DUP7 DUP6 PUSH1 0x1F DUP6 ADD AND ADD DUP10 PUSH2 0x6CB JUMP JUMPDEST DUP2 DUP9 MSTORE CALLDATASIZE PUSH1 0x24 DUP4 DUP4 ADD ADD GT PUSH2 0x2B6 JUMPI DUP2 DUP8 SWAP3 PUSH1 0x24 DUP9 SWAP4 ADD DUP4 DUP12 ADD CALLDATACOPY DUP9 ADD ADD MSTORE DUP6 MLOAD SWAP3 DUP4 GT PUSH2 0x28A JUMPI POP PUSH1 0x1 SWAP3 PUSH2 0x12C DUP5 SLOAD PUSH2 0x678 JUMP JUMPDEST PUSH1 0x1F DUP2 GT PUSH2 0x226 JUMPI JUMPDEST POP DUP1 SWAP2 PUSH1 0x1F DUP5 GT PUSH1 0x1 EQ PUSH2 0x18E JUMPI POP POP DUP4 SWAP5 DUP3 SWAP4 SWAP5 SWAP3 PUSH2 0x183 JUMPI JUMPDEST POP POP PUSH32 0xFFFFFFFFFFFFFFFFFFFFFFFFFFFFFFFFFFFFFFFFFFFFFFFFFFFFFFFFFFFFFFFF DUP3 DUP5 SHL SWAP3 PUSH1 0x3 SHL SHR NOT AND OR SWAP1 SSTORE DUP1 RETURN JUMPDEST ADD MLOAD SWAP1 POP CODESIZE DUP1 PUSH2 0x150 JUMP JUMPDEST DUP5 DUP7 MSTORE DUP4 AND SWAP6 PUSH32 0xB10E2D527612073B26EECDFD717E6A320CF44B4AFAC2B0732D9FCBE2B7FA0CF6 SWAP3 SWAP2 DUP7 SWAP1 JUMPDEST DUP9 DUP3 LT PUSH2 0x20F JUMPI POP POP DUP4 DUP6 SWAP7 SWAP8 LT PUSH2 0x1D8 JUMPI JUMPDEST POP POP POP DUP2 SHL ADD SWAP1 SSTORE DUP1 RETURN JUMPDEST ADD MLOAD PUSH32 0xFFFFFFFFFFFFFFFFFFFFFFFFFFFFFFFFFFFFFFFFFFFFFFFFFFFFFFFFFFFFFFFF PUSH1 0xF8 DUP5 PUSH1 0x3 SHL AND SHR NOT AND SWAP1 SSTORE CODESIZE DUP1 DUP1 PUSH2 0x1CD JUMP JUMPDEST DUP1 DUP8 DUP6 SWAP7 DUP3 SWAP5 SWAP7 DUP7 ADD MLOAD DUP2 SSTORE ADD SWAP6 ADD SWAP4 ADD SWAP1 PUSH2 0x1BA JUMP JUMPDEST DUP5 DUP7 MSTORE PUSH32 0xB10E2D527612073B26EECDFD717E6A320CF44B4AFAC2B0732D9FCBE2B7FA0CF6 PUSH1 0x1F DUP6 ADD PUSH1 0x5 SHR DUP2 ADD SWAP2 DUP4 DUP7 LT PUSH2 0x280 JUMPI JUMPDEST PUSH1 0x1F ADD PUSH1 0x5 SHR ADD SWAP1 DUP6 SWAP1 JUMPDEST DUP3 DUP2 LT PUSH2 0x275 JUMPI POP POP PUSH2 0x135 JUMP JUMPDEST DUP8 DUP2 SSTORE ADD DUP6 SWAP1 PUSH2 0x267 JUMP JUMPDEST SWAP1 SWAP2 POP DUP2 SWAP1 PUSH2 0x25C JUMP JUMPDEST DUP5 PUSH1 0x41 PUSH1 0x24 SWAP3 PUSH32 0x4E487B7100000000000000000000000000000000000000000000000000000000 DUP4 MSTORE MSTORE REVERT JUMPDEST DUP7 DUP1 REVERT JUMPDEST PUSH1 0x24 DUP7 PUSH1 0x41 DUP5 PUSH32 0x4E487B7100000000000000000000000000000000000000000000000000000000 DUP4 MSTORE MSTORE REVERT JUMPDEST DUP5 DUP1 REVERT JUMPDEST DUP3 DUP1 REVERT JUMPDEST POP DUP1 REVERT JUMPDEST POP DUP3 CALLVALUE PUSH2 0x2EA JUMPI DUP3 PUSH32 0xFFFFFFFFFFFFFFFFFFFFFFFFFFFFFFFFFFFFFFFFFFFFFFFFFFFFFFFFFFFFFFFC CALLDATASIZE ADD SLT PUSH2 0x2EA JUMPI DUP3 SLOAD SWAP1 PUSH32 0xFFFFFFFFFFFFFFFFFFFFFFFFFFFFFFFFFFFFFFFFFFFFFFFFFFFFFFFFFFFFFFFF DUP3 ADD SWAP3 DUP3 DUP5 GT PUSH2 0x3BF JUMPI POP PUSH32 0xC5802A3758D71D4EA2B77079FAD7B332621C089586B2FD70EC9B7E75761A8DEF SWAP2 DUP4 DUP3 PUSH1 0xC0 SWAP4 MLOAD SWAP3 PUSH1 0x80 DUP5 MSTORE PUSH1 0x9 PUSH1 0x80 DUP6 ADD MSTORE PUSH32 0x44656372656D656E740000000000000000000000000000000000000000000000 PUSH1 0xA0 DUP6 ADD MSTORE PUSH1 0x20 DUP5 ADD MSTORE DUP3 ADD MSTORE CALLER PUSH1 0x60 DUP3 ADD MSTORE LOG1 DUP2 SSTORE DUP1 RETURN JUMPDEST DUP5 PUSH1 0x11 PUSH1 0x24 SWAP3 PUSH32 0x4E487B7100000000000000000000000000000000000000000000000000000000 DUP4 MSTORE MSTORE REVERT JUMPDEST DUP3 DUP5 CALLVALUE PUSH2 0x2EE JUMPI DUP2 PUSH32 0xFFFFFFFFFFFFFFFFFFFFFFFFFFFFFFFFFFFFFFFFFFFFFFFFFFFFFFFFFFFFFFFC CALLDATASIZE ADD SLT PUSH2 0x2EE JUMPI PUSH1 0x20 SWAP2 SLOAD SWAP1 MLOAD SWAP1 DUP2 MSTORE RETURN JUMPDEST POP DUP3 CALLVALUE PUSH2 0x2EA JUMPI DUP3 PUSH32 0xFFFFFFFFFFFFFFFFFFFFFFFFFFFFFFFFFFFFFFFFFFFFFFFFFFFFFFFFFFFFFFFC CALLDATASIZE ADD SLT PUSH2 0x2EA JUMPI DUP3 SLOAD SWAP1 PUSH1 0x1 DUP3 ADD SWAP3 DUP4 DUP4 GT PUSH2 0x3BF JUMPI POP PUSH32 0xC5802A3758D71D4EA2B77079FAD7B332621C089586B2FD70EC9B7E75761A8DEF SWAP2 DUP4 DUP3 PUSH1 0xC0 SWAP4 MLOAD SWAP3 PUSH1 0x80 DUP5 MSTORE PUSH1 0x9 PUSH1 0x80 DUP6 ADD MSTORE PUSH32 0x496E6372656D656E740000000000000000000000000000000000000000000000 PUSH1 0xA0 DUP6 ADD MSTORE PUSH1 0x20 DUP5 ADD MSTORE DUP3 ADD MSTORE CALLER PUSH1 0x60 DUP3 ADD MSTORE LOG1 DUP2 SSTORE DUP1 RETURN JUMPDEST DUP3 DUP5 CALLVALUE PUSH2 0x2EE JUMPI DUP2 PUSH32 0xFFFFFFFFFFFFFFFFFFFFFFFFFFFFFFFFFFFFFFFFFFFFFFFFFFFFFFFFFFFFFFFC CALLDATASIZE ADD SLT PUSH2 0x2EE JUMPI DUP1 MLOAD DUP3 DUP2 PUSH1 0x1 SWAP2 DUP3 SLOAD SWAP3 PUSH2 0x517 DUP5 PUSH2 0x678 JUMP JUMPDEST DUP1 DUP5 MSTORE SWAP4 DUP2 DUP2 AND SWAP1 DUP2 ISZERO PUSH2 0x600 JUMPI POP PUSH1 0x1 EQ PUSH2 0x5A4 JUMPI JUMPDEST POP PUSH2 0x53E SWAP3 POP SWAP5 SWAP3 SWAP5 SUB DUP5 PUSH2 0x6CB JUMP JUMPDEST DUP2 MLOAD SWAP3 DUP4 SWAP2 PUSH1 0x20 DUP1 DUP5 MSTORE DUP3 MLOAD SWAP3 DUP4 DUP3 DUP7 ADD MSTORE DUP3 JUMPDEST DUP5 DUP2 LT PUSH2 0x58E JUMPI POP POP POP DUP3 DUP3 ADD DUP5 ADD MSTORE PUSH1 0x1F ADD PUSH32 0xFFFFFFFFFFFFFFFFFFFFFFFFFFFFFFFFFFFFFFFFFFFFFFFFFFFFFFFFFFFFFFE0 AND DUP2 ADD SUB ADD SWAP1 RETURN JUMPDEST DUP2 DUP2 ADD DUP4 ADD MLOAD DUP9 DUP3 ADD DUP9 ADD MSTORE DUP8 SWAP6 POP DUP3 ADD PUSH2 0x552 JUMP JUMPDEST DUP1 DUP8 MSTORE DUP7 SWAP2 POP PUSH32 0xB10E2D527612073B26EECDFD717E6A320CF44B4AFAC2B0732D9FCBE2B7FA0CF6 JUMPDEST DUP5 DUP4 LT PUSH2 0x5E5 JUMPI POP PUSH2 0x53E SWAP4 POP POP DUP2 ADD PUSH1 0x20 ADD DUP7 PUSH2 0x52E JUMP JUMPDEST DUP2 SWAP4 POP SWAP1 DUP2 PUSH1 0x20 SWAP3 SLOAD DUP4 DUP6 DUP10 ADD ADD MSTORE ADD SWAP2 ADD SWAP1 SWAP2 DUP5 SWAP3 PUSH2 0x5CC JUMP JUMPDEST PUSH1 0x20 SWAP4 POP PUSH2 0x53E SWAP6 SWAP3 POP PUSH32 0xFFFFFFFFFFFFFFFFFFFFFFFFFFFFFFFFFFFFFFFFFFFFFFFFFFFFFFFFFFFFFF00 SWAP2 POP AND DUP3 DUP5 ADD MSTORE ISZERO ISZERO PUSH1 0x5 SHL DUP3 ADD ADD DUP7 PUSH2 0x52E JUMP JUMPDEST DUP4 SWAP1 CALLVALUE PUSH2 0x2EE JUMPI DUP2 PUSH32 0xFFFFFFFFFFFFFFFFFFFFFFFFFFFFFFFFFFFFFFFFFFFFFFFFFFFFFFFFFFFFFFFC CALLDATASIZE ADD SLT PUSH2 0x2EE JUMPI PUSH1 0x20 SWAP2 SLOAD DUP2 MSTORE RETURN JUMPDEST SWAP1 PUSH1 0x1 DUP3 DUP2 SHR SWAP3 AND DUP1 ISZERO PUSH2 0x6C1 JUMPI JUMPDEST PUSH1 0x20 DUP4 LT EQ PUSH2 0x692 JUMPI JUMP JUMPDEST PUSH32 0x4E487B7100000000000000000000000000000000000000000000000000000000 PUSH1 0x0 MSTORE PUSH1 0x22 PUSH1 0x4 MSTORE PUSH1 0x24 PUSH1 0x0 REVERT JUMPDEST SWAP2 PUSH1 0x7F AND SWAP2 PUSH2 0x687 JUMP JUMPDEST SWAP1 PUSH1 0x1F PUSH32 0xFFFFFFFFFFFFFFFFFFFFFFFFFFFFFFFFFFFFFFFFFFFFFFFFFFFFFFFFFFFFFFE0 SWAP2 ADD AND DUP2 ADD SWAP1 DUP2 LT PUSH8 0xFFFFFFFFFFFFFFFF DUP3 GT OR PUSH2 0x70C JUMPI PUSH1 0x40 MSTORE JUMP JUMPDEST PUSH32 0x4E487B7100000000000000000000000000000000000000000000000000000000 PUSH1 0x0 MSTORE PUSH1 0x41 PUSH1 0x4 MSTORE PUSH1 0x24 PUSH1 0x0 REVERT INVALID LOG2 PUSH5 0x6970667358 0x22 SLT KECCAK256 CALL 0x4A SWAP10 SWAP9 JUMPI BALANCE 0x2B 0x22 PUSH15 0xE59D9348795F75C7A160C58959FBB1 0xF8 0xE9 0xDC DUP4 0xC 0xC7 0x4E SSTORE PUSH5 0x736F6C6343 STOP ADDMOD SLT STOP CALLER "
        },
        "methodIdentifiers": {
          "count()": "06661abd",
          "dec()": "b3bcfa82",
          "get()": "6d4ce63c",
          "inc()": "371303c0",
          "name()": "06fdde03",
          "setName(string)": "c47f0027"
        }
      }
    }
  }
}